:1000000000308A006A2800000A108A100A1182074C
:10001000C034F934A434B034993492348234F8348E
:100020008034903424308400831300080319252879
:100030000230F800F701F70B1B28F80B1A2897304D
:10004000F700F70B2128800B1828080083160614E8
:10005000831206183A281430A400122083160614BE
:10006000831206183A280130A2068316061483125A
:10007000061C35288A110A129028221C5D282108A6
:10008000FA0020080420A3008316880183122308A5
:100090008800A00A0319A10A0430A300FA30A400C2
:1000A0001220A30B4E28A108031D5A282008093C42
:1000B00003185C28A101A00167282108FA00200884
:1000C0000420A300831688018312230888008A1164
:1000D0000A12912803081F398300713083168F009C
:1000E0000F088312A101A00122108316031709082B
:1000F000C039890003131F129F12003003178800B4
:10010000831287018801890183130030831603134A
:100110008800013086008801C030831288002628BC
:060120003D288F2863005A
:04400E00E42FFF3F5D
:00000001FF
;PIC16F887
;CRC=8910  CREATED="09-May-25 23:40"
