:1000000001308A00022900000A108A100A118207B2
:10001000C034F934A434B034993492348234F8348E
:10002000803490342A308400831300080319252873
:100030000230F800F701F70B1B28F80B1A2897304D
:10004000F700F70B2128800B182808002108033C33
:10005000031C3728031D30282008E73C031C3728E1
:10006000A00A0319A10A3230AA0012203928A101DE
:10007000A0018A110A122B29F801F901F701FA01EE
:100080002F08031D46282E08031960281030B000E1
:100090000310AC0DAD0DF70DFA0D2F087A02031DFC
:1000A00053282E087702031C5C282E08F702031C35
:1000B000FA032F08FA020314F80DF90DB00B4828C3
:1000C00008002108AD002008AC00AF010A30AE00E6
:1000D0003C207708AA007A08AB00FA0077080420D1
:1000E000F800FA017808A2007A08A3002108AD0000
:1000F0002008AC00AF010A30AE003C207908AB000C
:100100007808AA007908AD007808AC00AF010A3081
:10011000AE003C207708AA007A08AB00FA00770806
:100120000420F800FA017808A4007A08A500210844
:10013000AD002008AC00AF016430AE003C2079086F
:10014000AB007808AA007908AD007808AC00AF01D0
:100150000A30AE003C207708AA007A08AB00FA000B
:1001600077080420F800FA017808A6007A08A700AA
:100170002608C03C031DCC28A708031DCC28A701D6
:10018000FF30A6002408C03C031DCC28A508031D91
:10019000CC28A501FF30A4008A110A122C2983164D
:1001A0008601831222088600831608108312081025
:1001B0000130AA0012208316081083120814831637
:1001C0008601831224088600831688108312881003
:1001D0000130AA0012208316881083128814831617
:1001E00086018312260886008316081183120811DF
:1001F0000130AA00122083160811831208158A11F3
:100200000A122D2903081F398300713083168F00CD
:100210000F088312A101A001A301A201A501A4015D
:10022000A701A601A901A801831603170908C0396F
:10023000890003131F129F120030031788008312D6
:100240008701880189018313003083160313860018
:0E0250008800831226286128CF282A296300FF
:04400E00E42FFF3F5D
:00000001FF
;PIC16F887
;CRC=09C7  CREATED="11-May-25 12:13"
