:1000000000308A0054280000223084008313000846
:10001000031917280230F800F701F70B0D28F80B29
:100020000C289730F700F70B1328800B0A280800DC
:10003000831609148312091C1F28A001382883166F
:100040000914831209183828831686178312861B11
:1000500033281430A2000420831686178312861BCF
:1000600033280130A000831686178312861F332899
:100070008A110A128428A008031D4528211021088E
:1000800083168700831207105128200B5128211056
:100090002108831687000130831287066430A2008E
:1000A00004208A110A12852803081F398300713041
:1000B00083168F000F088312A001FF30A100831662
:1000C00003170908C039890003131F129F1200305B
:1000D0000317880083128701880189018313003088
:1000E0008316031387008312A100FF308316860056
:1000F0000914891409158915831221102108831602
:0E01000087008312071018283B28832863000D
:04400E00E42FFF3F5D
:00000001FF
;PIC16F887
;CRC=F25D  CREATED="05-Jul-25 10:29"
