:1000000000308A0066280000FF00030E8301A10073
:100010000A08A0008A010408A2007708A300780853
:10002000A4007908A5007A08A600831383128C30F7
:100030008400801E1D288C1A2E2822088400230884
:10004000F7002408F8002508F9002608FA0020081F
:100050008A00210E8300FF0E7F0E09008A110A120A
:1000600031288C1E31281A08AA002A08A7008C12F1
:100070008A110A121D282F308400831300080319E7
:100080004E280230F800F701F70B4428F80B4328FC
:100090009730F700F70B4A28800B412808001030F2
:1000A000B000F701FA01AD0CAC0C031C5D282E0862
:1000B000F7070318FA0A2F08FA07FA0CF70CF90CDD
:1000C000F80CB00B53288A110A12C32803081F39F1
:1000D0008300713083168F000F08031787110C30CF
:1000E00003139900A2309800903083129800A70162
:1000F000A8012910AA01FF30AB00831603170908D5
:10010000C039890003131F129F12003003178800A3
:1001100083128701880189018313803083160313BA
:1001200087008312AB000030831688000130860000
:10013000C03083128B0483168C16061483120618A3
:10014000B6281430AF003B2083160614831206181D
:10015000B6280130A9060030291801300C1EAE283F
:100160009900831606148312061CB1288316081002
:100170000130831288060330AD00E830AC00AF01D7
:100180002708AE004F287908AD007808AC000310AE
:10019000AD0CAC0C2D08AE00AE0AAE030319D4288A
:1001A000FF30AF003B20CD282C08AF003B2083164A
:0401B0009D28630023
:04400E00E42FFF3F5D
:00000001FF
;PIC16F887
;CRC=A491  CREATED="11-May-25 15:00"
