:1000000003308A00792B0000251832367510E4374A
:10001000A0210000251832367510E437A021000019
:1000200051174E24C92254102010CC26B31A2D1A71
:100030000000CC26B31A2D192010A0282E27C82482
:10004000452A000151174E24C9225410A0282E27FA
:10005000C824452A0000CC26B31A2D1920102010E0
:10006000CC26B31A2D1A00000330AF02031C42281D
:100070002F308400831300080319422840284028A9
:10008000800B3F280800831689108312891083167D
:10009000091083120910831688018312250888002D
:1000A0008316091183120915831609118312091188
:1000B000C830AF00342008002530840083130008C6
:1000C00003196F280630F800F701F70B6528F80BC5
:1000D00064287B30F700F70B6B28800B6228080040
:1000E0003830A50043200530A5005C200C30A50069
:1000F00043200130A50043200230A5005C208A1176
:100100000A129E2B831689108312891083160910F8
:10011000831209148316880183122E08880083161F
:100120000911831209158316091183120911C830A8
:10013000AF00342008000B08A5008B1383160317AB
:100140008C170C140000000083120313A51B8B17DF
:1001500003170C087F390319EF280313A5000317B1
:100160000D080313A60003170F080313A7002508A3
:10017000AE008220260803178D00031327080317FB
:100180008F0003130B08A8008B13831603178C171B
:100190000C140000000083120313A81B8B17031715
:1001A0000C0D0E0D7F390319EF280313A50003175B
:1001B0000D080313A60003170F080313A700250853
:1001C000AE008220260803178D00031327080317AB
:1001D0008F008D0A03198F0A03139B28031703133B
:1001E00008008E30F7002808F8002708F900FA0107
:1001F000F808031D05297908F800F9010830F7020D
:10020000F808031D0529F7010D290310F81B0C2917
:10021000F90DF80DF7030529F8130800270803194D
:100220007E29AF002B0803197E29AF0703181F2969
:100230007F30AF02031C7E2903197E2923298130D8
:10024000AF0703187E292F08F700F801F901FA011A
:100250002808B300B3172908B2002A08B1001830E3
:10026000AF00B001311C4C292E08FA07031C3E29AF
:10027000F90A031D3E29F80A0319B0172D08F907DA
:10028000031C4529F80A0319B0172C08A900A9175F
:100290002908F8070318B017B00DF80CF90CFA0C80
:1002A000B30CB20CB10C0310AF0B31290130F707BE
:1002B00003187E29F81B6329B30DFA0DF90DF80D0B
:1002C000F70303197E29B31F7429FA0A031D742941
:1002D000F90A031D7429F80A031D7429F80CF90C96
:1002E000FA0CF70A03197E292808B0002C08B0067A
:1002F000B01F7C29F8178229F8138229F701F80129
:10030000F901FA0108008E30F7002508F7022608E7
:10031000F9002708F800F917F70803199A290310BC
:10032000F908031D9629F80803199A29F90CF80C05
:10033000F70B8F29A61FA129F809F909F80A031953
:10034000F90A0800AD010408AC002D10831B2D1420
:10035000260EF038A800A807E23EA900323EAB0006
:1003600026080F39A907A907AB07E93EAA00AA0783
:10037000AA07250E0F39AA07AB07AA0DAB0DAB09CB
:10038000AB0D25080F39AB07A80D0730A7000A30C1
:10039000AB07AA03031CC829AA07A903031CCC297D
:1003A000A907A803031CD029A807A703031CD42965
:1003B00027308400831307302C052C1384072B303F
:1003C000040203192C170008F700031DEF292C1B4A
:1003D000EF292C1A012AAC19EF292030F229AC158B
:1003E0002C123030F707A6010408A5002610831B45
:1003F00026147708AE00822025088400831326186F
:100400008317840A2C1FDF2908000B08A6008B1312
:10041000831603178C170C140000000083120313BB
:10042000A61B8B1703183C2A03170C087F390313EC
:10043000A60003170D080313A70003170F080313E3
:10044000A8002608AE008220270803178D0003139A
:10045000280803178F0003130B08A9008B138316BA
:1004600003178C170C140000000083120313A91B40
:100470008B17A50B3C2A5B2A03170C0D0E0D7F3939
:100480000313A60003170D080313A70003170F0893
:100490000313A8002608AE008220270803178D004A
:1004A0000313280803178F008D0A03198F0A0310FE
:1004B0000313A50B052A08000830F8001F08C339EC
:1004C00078049F009F149F18632A1E08FA00831661
:1004D0001E088312A5001E08A600A8002508A70074
:1004E000F1207A08AA007908A9007808A8007708FE
:1004F000A700E330AE003630AD007A30AC007D307E
:10050000AB000E217A08A8007908A7007808A60099
:100510007708A50083217908A1007808A000103091
:10052000F8001F08C33978049F009F149F18962A6B
:100530001E08FA0083161E088312A5001E08A600D6
:10054000A8002508A700F1207A08AA007908A900C8
:100550007808A8007708A700E330AE003630AD0079
:100560007A30AC007D30AB000E217A08A800790803
:10057000A7007808A6007708A50083217908A300C2
:100580007808A2008030A50043200B3084002108A9
:10059000A6002008A500A221063003178D00003018
:1005A0008F00031405300313A50005228930A50030
:1005B00043200B3084002308A6002208A500A221B6
:1005C0000C3003178D0000308F0003140530031327
:1005D000A50005228A110A12BC2BA108031D082BB5
:1005E0002008313C031C082BA308031D082B2208FC
:1005F000313C031C082BA4102408831687008312A7
:100600008710A41124088316870083128711762B84
:10061000A108031D0F2B2008323C03182D2BA30823
:10062000031D2D2B2208313C031C2D2BC030A500AF
:100630004320103003178D0000308F0003139B20E0
:10064000A41024088316870083128714A411240899
:100650008316870083128711762BA108031D522B66
:100660002008313C031C522BA308031D3B2B2208FE
:10067000323C0318522BC030A50043201930031719
:100680008D0000308F0003139B20A41024088316D4
:10069000870083128714A41124088316870083120D
:1006A0008711762BA108031D592B2008323C031813
:1006B000762BA308031D602B2208323C0318762BEF
:1006C000C030A5004320223003178D0000308F007A
:1006D00003139B20A4102408831687008312871419
:1006E000A411240883168700831287158A110A1221
:1006F000BD2B03081F398300FF30A40083160317A6
:100700000908C039890003131F129F120030031714
:10071000880083128701880189018313FF308316C3
:1007200003138500003087008312A400831688001D
:10073000091089100911891183127028C030A50091
:1007400043202B3003178D0000308F0003139B20B4
:100750001F139F1783169F1783121F1483160317E7
:100760000908C039890003131F129F1214300317A0
:0E0770008800831203135C2AED2ABB2B630062
:04400E00E22FFF3F5F
:00000001FF
;PIC16F887
;CRC=475F  CREATED="29-May-25 20:57"
