:1000000001308A006D290000FF00030E8301A1006A
:100010000A08A0008A010408A2007708A300780853
:10002000A4007908A5007A08A60003170D08031399
:10003000A70003170F080313A80003170C080313E6
:10004000A90003170E080313AA00831383128C3030
:100050008400801E2D288C1A4E2822088400230834
:10006000F7002408F8002508F9002608FA002708F8
:1000700003178D000313280803178F0003132908A3
:1000800003178C0003132A0803178E00031320089C
:100090008A00210E8300FF0E7F0E09008A110A12CA
:1000A0006628D3204E105024C1263A10A53A2000CD
:1000B000D3204E105024C1263A10A53A2000D32058
:1000C0004E105024C1263A10A53A20008C1E6628F6
:1000D0001A08AB008C128A110A122D288316891077
:1000E0008312891083160910831209108316880160
:1000F00083122F08880083160911831209158316AD
:100100000911831209118430F700F70B852888281C
:10011000000008002F3084008313000803199D2875
:100120000230F800F701F70B9328F80B922897306C
:10013000F700F70B9928800B902808003830AF00A3
:100140006E200530AF008A200C30AF006E200130E9
:10015000AF006E200230AF008A208A110A12A9294E
:1001600083168910831289108316091083120914CB
:1001700083168801831233088800831609118312BD
:10018000091583160911831209118430F700F70B42
:10019000C728CA28000008000B08B0008B1383167C
:1001A00003178C170C140000000083120313B01BFC
:1001B0008B170318032903170C087F390313B000AA
:1001C00003170D080313B10003170F080313B20040
:1001D0003008B300B020310803178D000313320834
:1001E00003178F0003130B08B3008B138316031739
:1001F0008C170C140000000083120313B31B8B1721
:10020000AF0B0329222903170C0D0E0D7F390313A1
:10021000B00003170D080313B10003170F080313F1
:10022000B2003008B300B020310803178D0003136B
:10023000320803178F008D0A03198F0A0310031366
:10024000AF0BCC2808003208F801310203182B2923
:100250003108F7003729F7010830B300B10DF70D69
:10026000320877020318F700F80DB30B2E290800A7
:1002700078082F08B1006430B20023217708AF005E
:1002800078083030031D4B29B01C5229B01952296F
:10029000301A20304E29B01130123014F807780887
:1002A000B300B0202F08B1000A30B2002321770834
:1002B000AF0078083030031D6329B0196729301C5E
:1002C0006729301A2030F8077808B300B0203030A2
:1002D000AF072F08B300B020080003081F398300C0
:1002E000713083168F000F08031787110C3003132A
:1002F0009900A2309800903083129800AB01AC01B5
:10030000AD01FF30AE00831603170908C03989001C
:1003100003131F129F1200300317880083128701F6
:10032000880189018313003083160313880080300D
:1003300087008312AE0083160910891009118911F4
:10034000FF3085000108C7393838810083128101E8
:100350009E28C0308B0483168C1683122B08523CC7
:10036000031DD0292C08FA3C031CCE290108AC003F
:100370008030AF006E20513003178D0000308F00A9
:1003800003100A300313AF00CC202C08AF001B3041
:10039000B00038212030B300B020CF298101072AD6
:1003A0002B08503C031DEC292C0881008030AF0045
:1003B0006E20583003178D0000308F0003100A3074
:1003C0000313AF00CC202C08AF001B30B000382145
:1003D0002030B300B020072A2B08533C031D072A06
:1003E0008101AC018030AF006E205F3003178D00BB
:1003F00000308F0003100A300313AF00CC202C080C
:10040000AF001B30B00038212030B300B020AE293F
:02041000630087
:04400E00E42FFF3F5D
:00000001FF
;PIC16F887
;CRC=5BE2  CREATED="11-May-25 18:14"
