:1000000001308A000D2900000A108A100A118207A7
:10001000C034F934A434B034993492348234F8348E
:100020008034903488348334C634A13486348E349A
:100030008E30F7002608F8002508F900FA01F808C4
:10004000031D2C287908F800F9010830F702F80898
:10005000031D2C28F70134280310F81B3328F90D51
:10006000F80DF7032C28F8138A110A125C292508C9
:100070000319A728AD0029080319A728AD070318FD
:1000800048287F30AD02031CA7280319A7284C2855
:100090008130AD070318A7282D08F700F801F901F2
:1000A000FA012608B100B1172708B0002808AF00F0
:1000B0001830AD00AE012F1C75282C08FA07031C60
:1000C0006728F90A031D6728F80A0319AE172B08D9
:1000D000F907031C6E28F80A0319AE172A08A700AF
:1000E000A7172708F8070318AE17AE0DF80CF90C80
:1000F000FA0CB10CB00CAF0C0310AD0B5A28013048
:10010000F7070318A728F81B8C28B10DFA0DF90D75
:10011000F80DF7030319A728B11F9D28FA0A031D3C
:100120009D28F90A031D9D28F80A031D9D28F80C37
:10013000F90CFA0CF70A0319A7282608AE002A08BA
:10014000AE06AE1FA528F817AB28F813AB28F701A9
:10015000F801F901FA018A110A126D298E30F700AF
:100160002308F7022408F9002508F800F917F70812
:100170000319C5280310F908031DC128F80803193D
:10018000C528F90CF80CF70BBA28A41FCC28F809DD
:10019000F909F80A0319F90A8A110A1276292608B8
:1001A00028068039AA00A61FDA28A509A609A50AEB
:1001B0000319A60AA81FE128A709A809A70A031975
:1001C000A80AF801F901F701FA012808031DEB2834
:1001D0002708031905291030A9000310A50DA60D45
:1001E000F70DFA0D28087A02031DF8282708770270
:1001F000031C01292708F702031CFA032808FA0246
:100200000314F80DF90DA90BED28AA1F0C29F80904
:10021000F909F80A0319F90A080003081F398300CD
:10022000713083168F000F08FF308312A2008316EF
:1002300003170908C039890003131F129F120030E9
:100240000317880083128701880189018313003016
:100250008316031387008312A200831688000914F3
:1002600089100911891183121F139F1783169F1775
:1002700083121F14831603170908C039890003135A
:100280001F129F122030031788001430F8008312C9
:1002900003131F08C33978049F009F149F184E2929
:1002A0001E08FA0083161E088312A3001E08A4006D
:1002B000A6002308A50018287A08A8007908A70036
:1002C0007808A6007708A500E330AC003630AB0014
:1002D0007A30AA007D30A90037287A08A60079086C
:1002E000A5007808A4007708A300AE287908A1002B
:1002F0007808A000A11F892983168801FF30831286
:1003000088000030A20083168701FF308312870027
:10031000D729A11B9F29A108031D92292008633C0E
:1003200003189F2983168801FF308312880000304C
:10033000A20083168701FF3083128700D729210886
:10034000A6002008A500A8010A30A700CF20770842
:10035000A3007A08A400FA0077080420A5008316F9
:1003600088018312250888002108A6002008A5001E
:10037000A8010A30A700CF207908A4007808A300BC
:100380007908A6007808A500A8010A30A700CF20A8
:100390007708A3007A08A400FA0077080420A500D3
:1003A0000030A200831687018312250887004D299B
:0203B0006300E8
:04400E00E42FFF3F5D
:00000001FF
;PIC16F887
;CRC=367F  CREATED="10-May-25 07:35"
