:1000000000308A00BC2800008316061383120613F2
:1000100083168612831286120030A0008316870191
:10002000831234088700831686138312861783167B
:100030008613831286138430F700F70B1D282028BF
:1000400000000800343084008313000803193528A9
:100050000230F800F701F70B2B28F80B2A2897300D
:10006000F700F70B3128800B282808003830B4003F
:1000700004200530B40022200C30B40004200130EC
:10008000B40004200230B40022208A110A12F2289F
:10009000831606138312061383168612831286169E
:1000A0000030A0008316870183123508870083166D
:1000B0008613831286178316861383128613843061
:1000C000F700F70B6128642800000800A20122084D
:1000D0000E3C031C852823302207F800FA01031880
:1000E000FA0A7808B4007A08B50001302207233EE6
:1000F000840083130008B600340884008313351885
:10010000831736088000A20A672830302107B20022
:100110008030B4000420A20122080F3C031C9A285E
:1001200023302207840083130008B400B500482060
:10013000A20A8C280800C030B4000420A2012208C2
:100140000F3C031CB92823302207840083130008C6
:100150000139031DB42823302207840083130008CB
:10016000B400B5004820B7282030B5004820A20AC6
:100170009F288A110A126D2903081F398300FF3056
:10018000A000831603170908C039890003131F1242
:100190009F120030031788008312870188018901AC
:1001A00083130313A301A401A501A601A701A801BC
:1001B000A901AA01AB01AC01AD01AE01AF01B001D3
:1001C000B101B201B3010030831687008312A00091
:1001D00083168600FF3088000914891409158915D3
:1001E000831236288316881483128818082914303D
:1001F000B40022208316881483128818072901303E
:10020000A1006620831688148312881C02295F29A6
:1002100083160815831208191E291430B4002220F1
:1002200083160815831208191D290230A1006620C3
:10023000831608158312081D18295F29831688154F
:100240008312881934291430B400222083168815AB
:100250008312881933290330A1006620831688157C
:100260008312881D2E295F29831608168312081A07
:100270004A291430B4002220831608168312081A63
:1002800049290430A1006620831608168312081E2F
:1002900044295F29831688168312881A5F2914302F
:1002A000B4002220831688168312881A5F2905302D
:1002B000A1006620831688168312881E5A29831689
:1002C00089148312891872291430B40022208316ED
:1002D00089148312891872299B2883168914831222
:0802E000891C6D29F22863005E
:04400E00E22FFF3F5F
:00000001FF
;PIC16F887
;CRC=1CAE  CREATED="29-May-25 15:01"
