:1000000000308A00A428000083160613831206130A
:1000100083168612831286120030A0008316870191
:10002000831234088700831686138312861783167B
:100030008613831286138430F700F70B1D282028BF
:1000400000000800343084008313000803193528A9
:100050000230F800F701F70B2B28F80B2A2897300D
:10006000F700F70B3128800B282808003830B4003F
:1000700004200530B40022200C30B40004200130EC
:10008000B40004200230B40022208A110A12DC28B5
:10009000B20132080E3C031C672821303207F800F9
:1000A000FA010318FA0A7808B4007A08B50001309A
:1000B0003207213E840083130008B6003408840010
:1000C00083133518831736088000B20A492833088D
:1000D000093C031C6F2830303307B00072283730DA
:1000E0003307B0008030B4000420B20132080F3C66
:1000F000031CA12821303207840083130008B400B8
:100100003408B5008316061383120613831686126D
:10011000831286160030A0008316870183123508EB
:10012000870083168613831286178316861383121D
:1001300086138430F700F70B9B289E280000B20A34
:1001400076288A110A12EA2803081F398300FF3033
:10015000A000831603170908C039890003131F1272
:100160009F120030031788008312870188018901DC
:1001700083134E300313A1004730A200A301A40152
:10018000A501A601A701A801A901AA01AB01AC0123
:10019000AD01AE01AF01B001B1010030831687009F
:1001A0008312A00083168600FF308800091489148A
:1001B0000915891583123628B20132080F3C031C39
:1001C000E928213032078400831320308000B20AEE
:0801D000DD284828E92863003E
:04400E00E22FFF3F5F
:00000001FF
;PIC16F887
;CRC=5331  CREATED="13-May-25 10:39"
