:1000000003308A00D22B0000FF00030E8301A10001
:100010000A08A0008A010408A2007708A300780853
:10002000A4007908A5007A08A600831383128C30F7
:100030008400801E1D288C1A2E2822088400230884
:10004000F7002408F8002508F9002608FA0020081F
:100050008A00210E8300FF0E7F0E09008A110A120A
:100060003F280A108A100A118207C034F934A434D8
:10007000B034993492348234F834803490348C1E05
:100080003F281A08B401B3003308BB3C031D4B28BA
:10009000B408031981018C128A110A121D288E30AE
:1000A000F7003B08F8003A08F900FA01F808031DC8
:1000B00063287908F800F9010830F702F808031DF1
:1000C0006328F7016B280310F81B6A28F90DF80D57
:1000D000F7036328F8130800363084008313000800
:1000E00003197F280630F800F701F70B7528F80B85
:1000F00074287B30F700F70B7B28800B72280800F0
:10010000F801F901F701FA013B08031D8A283A08B2
:100110000319A4281030BC000310B80DB90DF70D59
:10012000FA0D3B087A02031D97283A087702031C50
:10013000A0283A08F702031CFA033B08FA0203144A
:10014000F80DF90DBC0B8C280800AC01AB01AA011D
:10015000A901AA08031DD32A2908093C031CD32A94
:100160009F149F18B1281E08FA0083161E088312D8
:10017000B6007A08B7003708BB003608BA004F202F
:100180007A08BB007908BA007808B9007708B80087
:10019000E330BF003630BE007A30BD007D30BC0099
:1001A000380803194029C0003C0803194029C0073A
:1001B0000318E1287F30C002031C4029031940299D
:1001C000E5288130C007031840294008F700F801EE
:1001D000F901FA013908C400C4173A08C3003B0802
:1001E000C2001830C000C101421C0E293F08FA07A6
:1001F000031C0029F90A031D0029F80A0319C11775
:100200003E08F907031C0729F80A0319C1173D081E
:10021000BA00BA173A08F8070318C117C10DF80C4D
:10022000F90CFA0CC40CC30CC20C0310C00BF3285D
:100230000130F70703184029F81B2529C40DFA0DD2
:10024000F90DF80DF70303194029C41F3629FA0ADE
:10025000031D3629F90A031D3629F80A031D36291C
:10026000F80CF90CFA0CF70A031940293908C100F7
:100270003D08C106C11F3E29F8174429F813442937
:10028000F701F801F901FA017A08B9007908B80014
:100290007808B7007708B6002C08BB002B08BA0016
:1002A0004F2083107A08BD007908BC007808BB0095
:1002B0007708BA003908C1003808C0003708BF0005
:1002C0003608BE0080308318BF06C401C5013B0854
:1002D000C3003F08C3063A080319522AC200F700B8
:1002E0003E0803195B2AC2020319F729031CB5292A
:1002F0003F08C800C8174008C7004108C600C5012C
:100300000310C80CC70CC60CC50CC20B7F29C31F39
:100310008C2944146F2A4410421044163D30840046
:100320008313842A4412C31B9F29421CAA29C80C88
:10033000C70CC60CC50CF70A03196A2AAA29C81BE0
:10034000AD290310C50DC60DC70DC80DF703031960
:100350006A2A9F294417172A44133B08C300C31F66
:10036000B329C817632AC813632A3E08C200F700DE
:100370003A08C2023B08C800C8173C08C7003D083D
:10038000C600C5010310C80CC70CC60CC50CC20BB7
:10039000C129C31FCE29C4146F2AC4104210C41629
:1003A000413084008313842AC412C31BE129421CF8
:1003B000EC29C80CC70CC60CC50CF70A03196A2A2D
:1003C000EC29C81BEF290310C50DC60DC70DC80DBC
:1003D000F70303196A2AE129C417172AC4133F082F
:1003E000C300C31FF529C817632AC813632A3F082F
:1003F000C800C8174008C7004108C600C31F042A28
:10040000C81344156F2A4411C50142103D308400C1
:100410008313842AC31B2D2A3B08C300421C172ABE
:10042000C80CC70CC60CC50CF70A03196A2AC51FED
:10043000282AC60A031D282AC70A031D282AC80A13
:10044000031D282AC80CC70CC60CF70A03196A2A10
:10045000441BAC29C41BEE294C2A8030C806C81F97
:10046000352A6F2A3F08C300422A3B08C300C80848
:10047000031D422AC708031D422AC608031D422A3B
:10048000F701632AC81B4C2A0310C50DC60DC70D02
:10049000C80DF70B422A6A2AC31F502AC817632ABD
:1004A000C813632A3E08F7003F08C8004008C70089
:1004B0004108C600632A3A08F7003B08C8003C0818
:1004C000C7003D08C6004808F8004708F90046087C
:1004D000FA00A22AF701F801F901FA01A22AC501DE
:1004E000C609C709C809C509C50A031D7D2AC60A68
:1004F000031D7D2AC70A0319C80A44188B29C4188A
:10050000CD294419032A322A0008C607031C8E2A63
:10051000C70A031D8E2AC80A03194214840300085F
:10052000C707031C962AC80A03194214840300084B
:10053000801F803AC80703184214441A9229C41A2B
:10054000D4290A2A7A08BD007908BC007808BB00C3
:100550007708BA008E30F7003A08F7023B08F90036
:100560003C08F800F917F7080319C12A0310F90825
:10057000031DBD2AF8080319C12AF90CF80CF70B62
:10058000B62ABB1FC82AF809F909F80A0319F90A9B
:100590007908AC007808AB000130B6006C20A90ADD
:1005A0000319AA0AA9282C08B9002B08B800BB0116
:1005B0000A30BA0080207908A8007808A700280827
:1005C000B9002708B800BB010A30BA0080207708BC
:1005D000B6007A08B700FA0077083120B800831611
:1005E0008801831238088800B51135088316870002
:1005F000831287110130B6006C20B51135088316BF
:100600008700831287152808B9002708B800BB01A6
:100610000A30BA0080207908B7007808B600790857
:10062000B9007808B800BB010A30BA00802077080A
:10063000B6007A08B700FA0077083120B8008316B0
:100640008801831238088800351135088316870021
:10065000831207110130B6006C203511350883165E
:100660008700831207158A110A121F2C0108AE0198
:10067000AD00AE08031D3F2B2D08633C031C810118
:100680002E08B9002D08B800BB010A30BA0080203E
:100690007908B7007808B6007908B9007808B8007A
:1006A000BB010A30BA0080207708B6007A08B7008C
:1006B000FA0077083120F800FA017808AF007A08CC
:1006C000B0002E08B9002D08B800BB010A30BA00EE
:1006D00080207708B6007A08B700FA007708312042
:1006E000F800FA017808B1007A08B2002F08C03C7F
:1006F000031D802BB008031D802BB001FF30AF001D
:1007000083168801831231088800B51035088316D6
:100710008700831287100130B6006C20B5103508B1
:1007200083168700831287148316880183122F088B
:1007300088003510350883168700831207100130B2
:10074000B6006C2035103508831687008312071415
:100750008A110A12202C8316061483120618B42B51
:10076000A0300C1EB12B99008316861483128618B4
:10077000BD2BA1300C1EBA2B9900831606158312CF
:100780000619C62BA2300C1EC32B990083168615A2
:1007900083128619CF2BA3300C1ECC2B99008A1103
:1007A0000A12212C03081F398300831603178715AB
:1007B00008300313990002309A00A6309800903058
:1007C00083129800FF30B500831603170908C0395B
:1007D000890003131F129F12003003178800831231
:1007E00087018801890183138030831603138700F2
:1007F0008312B500003083168800FF308500860024
:1008000083121F139F1783169F1783121F148316BB
:1008100003170908C039890003131F129F12013002
:100820000317880003130108C73938388100831281
:100830008101C0308B0483168C168312A528362BB9
:06084000AB2B1E2C63002F
:04400E00E22FFF3F5F
:00000001FF
;PIC16F887
;CRC=C456  CREATED="26-May-25 21:28"
