:1000000001308A0019290000FF00030E8301A100BE
:100010000A08A0008A010408A2007708A300780853
:10002000A4007908A5007A08A600831383128C30F7
:100030008400801E1D288C1A34288C308400001CFB
:1000400023280C183728220884002308F7002408E6
:10005000F8002508F9002608FA0020088A00210E79
:100060008300FF0E7F0E09008A110A1254288A119C
:100070000A1248280A108A100A118207C034F9347B
:10008000A434B034993492348234F83480349034C7
:10009000A70A0319A80A8E010B308F00DC308E00EE
:1000A0000C108A110A1223288C1E54281A08AE013B
:1000B000AD002D08A03C031D6228AE08031D622878
:1000C000AC01AB012D08A13C031D6C28AE08031D3B
:1000D0006C28AC01FA30AB002D08A23C031D772838
:1000E000AE08031D77280130AC00F430AB002D08BA
:1000F000A33C031D8228AE08031D82280230AC00F9
:10010000EE30AB002C08F9002B08F800F90CF80CC5
:10011000F90CF80CF90C78089500F90C790C3039C9
:10012000F7001708CF39770497008C128A110A124A
:100130002328F801F901F701FA013508031DA32866
:1001400034080319BD281030B6000310B20DB30DEA
:10015000F70DFA0D35087A02031DB028340877022E
:10016000031CB9283408F702031CFA033508FA0205
:100170000314F80DF90DB60BA528080027080A3C52
:10018000031DD428A808031DD428A801A701AA0884
:10019000031DD22829083A3C031CD228A90A0319B6
:1001A000AA0AD428AA01A9012A08B3002908B20082
:1001B000B5010A30B40099207708B0007A08B10080
:1001C000FA0077083A20B2008316880183123208B9
:1001D00088002A08B3002908B200B5010A30B4002B
:1001E00099207908B1007808B0007908B300780840
:1001F000B200B5010A30B40099207708B0007A083F
:10020000B100FA0077083A20B20083168601831203
:10021000320886008A110A128729831689148312EC
:1002200089181629BB300C1E132999008A110A124D
:10023000882903081F3983008316031787150830A0
:100240000313990002309A00A63098009030831270
:100250009800A801A701AA01A901AC01AB01FF30D8
:10026000AF00831603170908C039890003131F1252
:100270009F120030031788008312870188018901CB
:10028000831380308316031387008312AF0000307E
:1002900083168600880009148914091589153530DC
:1002A000831290008E010B308F00DC308E00C03046
:1002B0008B0483160C148C160030F8000638831259
:1002C0009200F9308316920083122F112F088316A3
:1002D0008700831207110C30970083169B019C0145
:1002E00001309D0083122C08F9002B08F800F90C4E
:1002F000F80CF90CF80CF90C78089500F90C790C4D
:100300003039F7001708CF3977049700BE280D2938
:0403100086296300D7
:04400E00E22FFF3F5F
:00000001FF
;PIC16F887
;CRC=4236  CREATED="26-May-25 21:59"
