:1000000000308A0018280000213084008313000883
:10001000031917280230F800F701F70B0D28F80B29
:100020000C289730F700F70B1328800B0A280800DC
:1000300003081F398300713083168F000F08831265
:10004000A001831603170908C039890003131F1282
:100050009F120030031788008312870188018901ED
:100060008313003083160313860088008312A001D7
:100070002008633C031C6E2883168601C03083125F
:10008000860083160810831208100130A100042096
:10009000831608108312081483168601F930831220
:1000A000860083168810831288100130A100042076
:1000B000831688108312881483168601F930831200
:1000C000860083160811831208110130A100042054
:1000D0008316081183120815A00A382837286300F0
:04400E00E42FFF3F5D
:00000001FF
;PIC16F887
;CRC=6AEF  CREATED="11-May-25 19:51"
