:1000000000308A001E28000083160614831206188A
:100010000C282014A0101B2883168614831286181F
:1000200014282010A0141B288316891583128919FF
:100030001B282010A0108A110A12642803081F39F7
:1000400083002010A010FF30A100831603170908B9
:10005000C039890003131F129F1200300317880054
:1000600083128701880189018313003083160313EB
:1000700087008312A100FF308316860009148914BB
:10008000091589150030F800063883129200F930FE
:100090008316920083122111210883168700831290
:1000A00007110C30970083169B019C0101309D00C5
:1000B00083129501A11021088316870083128710EF
:1000C0000C309D009B010428201C6D28AF3095004A
:1000D0001708CF3997009B017528A01C752895013A
:0E00E0004B309B001D08CF399D006328630044
:04400E00E22FFF3F5F
:00000001FF
;PIC16F887
;CRC=8C02  CREATED="10-May-25 09:26"
