:1000000000308A001E28000083160614831206188A
:100010000C282014A0101B2883168614831286181F
:1000200014282010A0141B288316891583128919FF
:100030001B282010A0108A110A12682803081F39F3
:1000400083002010A010A101A201FF30A30083169D
:1000500003170908C039890003131F129F120030CB
:1000600003178800831287018801890183130030F8
:100070008316031387008312A300FF3083168600C4
:1000800009148914091589150030F80006388312FF
:100090009200F930831692008312231123088316ED
:1000A0008700831207110C30970083169B019C0177
:1000B00001309D00831221089500A31023088316A8
:1000C0008700831287100C309D0022089B000428B3
:1000D000201C7228BC30A100A20121089500220832
:1000E0009B007B28A01C7B28A1012C30A2002108AA
:0A00F000950022089B0067286300BA
:04400E00E22FFF3F5F
:00000001FF
;PIC16F887
;CRC=0823  CREATED="24-May-25 11:08"
