:1000000000308A00FC28000026308400831300089A
:10001000031917280230F800F701F70B0D28F80B29
:100020000C289730F700F70B1328800B0A280800DC
:1000300083160914831209182C281430A6000420F2
:1000400083160914831209182C280130A40683167C
:1000500009148312091C2728241CE42883168914F8
:10006000831289184E281430A600042083168914A0
:10007000831289184E28A308031D46282208043C31
:10008000031C4628A20A0319A30A4928A301013028
:10009000A200831689148312891C4928220B6A281E
:1000A000A308031D6A28A1012830A0002108F90037
:1000B0002008F800F90CF80CF90CF80CF90C780889
:1000C0009500F90C790C3039F7001708CF3977040F
:1000D0009700E3282208023C031D8828A308031D7B
:1000E0008828A1015030A0002108F9002008F8005C
:1000F000F90CF80CF90CF80CF90C78089500F90CCF
:10010000790C3039F7001708CF3977049700E328C6
:100110002208033C031DA628A308031DA628A1014D
:10012000C830A0002108F9002008F800F90CF80CEC
:10013000F90CF80CF90C78089500F90C790C3039A9
:10014000F7001708CF3977049700E3282208043C0A
:10015000031DC528A308031DC5280130A100403098
:10016000A0002108F9002008F800F90CF80CF90C9F
:10017000F80CF90C78089500F90C790C3039F70077
:100180001708CF3977049700E3282208053C031DA0
:10019000E328A308031DE3280130A1009030A0004C
:1001A0002108F9002008F800F90CF80CF90CF80CFB
:1001B000F90C78089500F90C790C3039F70017081C
:1001C000CF3977049700F928A101A0012108F9008F
:1001D0002008F800F90CF80CF90CF80CF90C780868
:1001E0009500F90C790C3039F7001708CF397704EE
:1001F00097008A110A12512903081F3983007130B0
:1002000083168F000F088312A101A001A301013002
:10021000A2002410FF30A500831603170908C03977
:10022000890003131F129F120030031788008312E6
:100230008701880189018313003083160313870027
:100240008312A50083160914891409158915F8006D
:1002500006388312920063308316920083122511B0
:10026000250883168700831207110C309700831628
:100270009B019C0101309D0083122108F900200898
:10028000F800F90CF80CF90CF80CF90C780895004A
:10029000F90C790C3039F7001708CF39770497003B
:0602A0001828502963003C
:04400E00E42FFF3F5D
:00000001FF
;PIC16F887
;CRC=2C14  CREATED="24-May-25 14:38"
