:1000000000308A009F2800000A108A100A11820717
:10001000C034F934A434B034993492348234F8348E
:100020008034903425308400831300080319252878
:100030000230F800F701F70B1B28F80B1A2897304D
:10004000F700F70B2128800B182808002708F80173
:10005000260203182E282608F7003A28F701083050
:10006000A800A60DF70D270877020318F700F80D72
:10007000A80B312808002208A6000A30A700262075
:100080007808A6000A30A700262077080420F80088
:10009000A0002208A6000A30A70026207708042026
:1000A000F800A1000030A300831687018312200806
:1000B00087008316880183122108880008008316B0
:1000C0000614831206186C281430A500122083161B
:1000D00006148312061CA20A831606148312061C39
:1000E0006C283B208A110A12C728831686148312B3
:1000F00086189C281430A5001220831686148312BB
:1001000086189C28A401A4012208240203189C2814
:100110003B20C830A50012200030A30083168701C1
:10012000FF30831287008316880183128800C8304D
:10013000A5001220A40A84288A110A12C8280308DC
:100140001F398300713083168F000F08053083122A
:10015000A200FF30A300831603170908C0398900E5
:1001600003131F129F1200300317880083128701A8
:10017000880189018313FF30831603138600003042
:1001800087008312A3008316880083125F287528D6
:04019000C62863001A
:04400E00E42FFF3F5D
:00000001FF
;PIC16F887
;CRC=259F  CREATED="07-Jul-25 19:44"
