:1000000000308A00D3280000FF00030E8301A10006
:100010000A08A0008A010408A2007708A300780853
:10002000A4007908A5007A08A600831383128C30F7
:100030008400801E1D288C1A2E2822088400230884
:10004000F7002408F8002508F9002608FA0020081F
:100050008A00210E8300FF0E7F0E09008A110A120A
:100060003F280A108A100A118207C034F934A434D8
:10007000B034993492348234F834803490348C1E05
:100080003F281A08A9002908443C031D4F288C1E4C
:1000900047281A08A9002908433C031D47288C1249
:1000A0008A110A121D282B308400831300080319BB
:1000B00066280630F800F701F70B5C28F80B5B2880
:1000C0007B30F700F70B6228800B592808002C08BA
:1000D000F8012B0203186F282B08F7007B28F70183
:1000E0000830AD00AB0DF70D2C0877020318F700B0
:1000F000F80DAD0B7228080083160514831205183D
:1001000099281430AB005320831605148312051868
:1001100099282708083C031C9328A70A54300C1E72
:100120008F2899009428A701831605148312051CB3
:1001300094288316851483128518B6281430AB00D2
:1001400053208316851483128518B6282808083C86
:10015000031CB028A80A58300C1EAC289900B128FE
:10016000A801831685148312851CB1282708AB00CB
:100170000A30AC00672077083120AB008316880175
:1001800083122B0888002808AB000A30AC006720D7
:1001900077083120AB008316860183122B08860076
:1001A0008A110A120B2903081F39830083160317CB
:1001B000871522300313990008309A00A630980062
:1001C000903083129800A701A801FF30AA0083167F
:1001D00003170908C039890003131F129F1200304A
:1001E0000317880083128701880189018313FF3078
:1001F0008316031385000030860080308700831249
:10020000AA00003083168800C03083128B04831646
:0A0210008C1683127C280A29630073
:04400E00E22FFF3F5F
:00000001FF
;PIC16F887
;CRC=F443  CREATED="29-May-25 21:35"
