:1000000000308A00DE2800000A108A100A118207D8
:10001000C034F934A434B034993492348234F8348E
:10002000803490348E30F7002508F8002408F90059
:10003000FA01F808031D26287908F800F9010830AC
:10004000F702F808031D2628F7012E280310F81BD5
:100050002D28F90DF80DF7032628F8138A110A1236
:10006000272924080319A128AC0028080319A1286E
:10007000AC07031842287F30AC02031CA1280319E7
:10008000A12846288130AC070318A1282C08F700C6
:10009000F801F901FA012508B000B0172608AF00F1
:1000A0002708AE001830AC00AD012E1C6F282B08BD
:1000B000FA07031C6128F90A031D6128F80A0319CD
:1000C000AD172A08F907031C6828F80A0319AD17A9
:1000D0002908A600A6172608F8070318AD17AD0DC6
:1000E000F80CF90CFA0CB00CAF0CAE0C0310AC0B06
:1000F00054280130F7070318A128F81B8628B00DF3
:10010000FA0DF90DF80DF7030319A128B01F972870
:10011000FA0A031D9728F90A031D9728F80A031DF8
:100120009728F80CF90CFA0CF70A0319A1282508EE
:10013000AD002908AD06AD1F9F28F817A528F813B4
:10014000A528F701F801F901FA018A110A123829E4
:100150008E30F7002208F7022308F9002408F8007F
:10016000F917F7080319BF280310F908031DBB2866
:10017000F8080319BF28F90CF80CF70BB428A31FD3
:10018000C628F809F909F80A0319F90A8A110A12A6
:1001900041292408F80123020318D1282308F70075
:1001A000DD28F7010830A500A30DF70D240877021C
:1001B0000318F700F80DA50BD428080003081F3911
:1001C0008300A001FF30A100831603170908C0397E
:1001D000890003131F129F12003003178800831237
:1001E0008701880189018313003083160313870078
:1001F0008312A10083168800FF30850083121F132D
:100200009F1783169F1783121F148316031709085D
:10021000C039890003131F169F120430031788008A
:100220000830F800831203131F08C33978049F00B5
:100230009F149F1819291E08FA0083161E0883129E
:10024000A2001E08A300A5002208A40012287A0814
:10025000A7007908A6007808A5007708A400423016
:10026000AB006030AA002530A9007D30A8003128FD
:100270007A08A5007908A4007808A3007708A200EE
:10028000A8287808A0002008A3000A30A400C920EC
:100290007808A3000A30A400C92077080420A2002F
:1002A0000030A100831687018312220887002008EE
:1002B000A3000A30A400C92077080420A2008316F6
:1002C000880183122208880083160317102963000F
:04400E00E22FFF3F5F
:00000001FF
;PIC16F887
;CRC=C6C2  CREATED="23-May-25 11:58"
