:1000000000308A0018280000213084008313000883
:10001000031917280230F800F701F70B0D28F80B29
:100020000C289730F700F70B1328800B0A280800DC
:1000300003081F398300713083168F000F08FF30CB
:100040008312A000831603170908C039890003131F
:100050001F129F1200300317880083128701880146
:100060008901831300308316031387008312A000D5
:100070008316880000308312A00083168701F930B0
:100080008312870083160810831208100130A10024
:10009000042083160810831208140030A000831671
:1000A0008701F93083128700831688108312881025
:1000B0000130A100042083168810831288140030B8
:1000C000A00083168701C0308312870083160811B1
:1000D000831208110130A100042083160811831235
:0800E000081583163A2863009D
:04400E00E42FFF3F5D
:00000001FF
;PIC16F887
;CRC=9DF9  CREATED="07-Jul-25 11:01"
