:1000000001308A003329000050396F32F531F41E77
:100010002518323675100000C237F81E25183536FF
:1000200075000330AE02031C1F282E30840083139A
:10003000000803191F281D280000800B1C28080039
:1000400083168910831289108316091083120910F0
:1000500083168801831224088800831609118312ED
:1000600009158316091183120911C830AE00112039
:100070000800243084008313000803194D2805303C
:10008000F800F701F70B4228F80B41282E30F70053
:10009000F70B48284B28800B3F2808003830A40075
:1000A00020200530A40039200C30A400202001308D
:1000B000A40020200230A40039208A110A125829F5
:1000C000831689108312891083160910831209146C
:1000D0008316880183122D08880083160911831264
:1000E00009158316091183120911C830AE001120B9
:1000F00008000B08A5008B13831603178C170C142C
:100100000000000083120313A51B8B170318B028EF
:1001100003170C087F390313A50003170D080313F9
:10012000A60003170F080313A7002508AD006020E1
:10013000260803178D000313270803178F000313E6
:100140000B08A8008B13831603178C170C140000E0
:10015000000083120313A81B8B17A40BB028CF2811
:1001600003170C0D0E0D7F390313A50003170D089F
:100170000313A60003170F080313A7002508AD00FB
:100180006020260803178D000313270803178F002C
:100190008D0A03198F0A03100313A40B7928080092
:1001A000AC010408AB002C10831B2C14250EF03876
:1001B000A700A707E23EA800323EAA0025080F3993
:1001C000A807A807AA07E93EA900A907A907240EBE
:1001D0000F39A907AA07A90DAA0DAA09AA0D240873
:1001E0000F39AA07A70D0730A6000A30AA07A903EE
:1001F000031CF628A907A803031CFA28A807A703CD
:10020000031CFE28A707A603031C0229263084002E
:10021000831307302B052B1384072A30040203199C
:100220002B170008F700031D1D292B1B1D292B1A56
:100230002F29AB191D2920302029AB152B12303066
:10024000F707A5010408A4002510831B25147708CF
:10025000AD00602024088400831325188317840AC6
:100260002B1F0D29080003081F398300A101A001DD
:100270000730A300B730A200831603170908C0395E
:10028000890003131F129F12003003178800831286
:1002900087018801890183130030831603138800C6
:1002A0000910891009118911FF30850083124E2829
:1002B00083160108C739283881008312810101089B
:1002C000A101A000A108031D692920080C3C031806
:1002D000702901308100A101A000A20A0319A30A1C
:1002E0008030A4002020043003178D0000308F00E0
:1002F000031008300313A40079200B308400210878
:10030000A5002008A400D0202030AD006020C0301F
:10031000A40020200C3003178D0000308F00031044
:1003200004300313A4007920083084002308A500BA
:0A0330002208A400D0205F2963001A
:04400E00E22FFF3F5F
:00000001FF
;PIC16F887
;CRC=D931  CREATED="10-May-25 08:32"
